{
  "_format": "hh-sol-artifact-1",
  "contractName": "Domains",
  "sourceName": "contracts/Domains.sol",
  "abi": [
    {
      "inputs": [
        {
          "internalType": "string",
          "name": "_tld",
          "type": "string"
        }
      ],
      "stateMutability": "payable",
      "type": "constructor"
    },
    {
      "anonymous": false,
      "inputs": [
        {
          "indexed": true,
          "internalType": "address",
          "name": "owner",
          "type": "address"
        },
        {
          "indexed": true,
          "internalType": "address",
          "name": "approved",
          "type": "address"
        },
        {
          "indexed": true,
          "internalType": "uint256",
          "name": "tokenId",
          "type": "uint256"
        }
      ],
      "name": "Approval",
      "type": "event"
    },
    {
      "anonymous": false,
      "inputs": [
        {
          "indexed": true,
          "internalType": "address",
          "name": "owner",
          "type": "address"
        },
        {
          "indexed": true,
          "internalType": "address",
          "name": "operator",
          "type": "address"
        },
        {
          "indexed": false,
          "internalType": "bool",
          "name": "approved",
          "type": "bool"
        }
      ],
      "name": "ApprovalForAll",
      "type": "event"
    },
    {
      "anonymous": false,
      "inputs": [
        {
          "indexed": true,
          "internalType": "address",
          "name": "from",
          "type": "address"
        },
        {
          "indexed": true,
          "internalType": "address",
          "name": "to",
          "type": "address"
        },
        {
          "indexed": true,
          "internalType": "uint256",
          "name": "tokenId",
          "type": "uint256"
        }
      ],
      "name": "Transfer",
      "type": "event"
    },
    {
      "inputs": [
        {
          "internalType": "address",
          "name": "to",
          "type": "address"
        },
        {
          "internalType": "uint256",
          "name": "tokenId",
          "type": "uint256"
        }
      ],
      "name": "approve",
      "outputs": [],
      "stateMutability": "nonpayable",
      "type": "function"
    },
    {
      "inputs": [
        {
          "internalType": "address",
          "name": "owner",
          "type": "address"
        }
      ],
      "name": "balanceOf",
      "outputs": [
        {
          "internalType": "uint256",
          "name": "",
          "type": "uint256"
        }
      ],
      "stateMutability": "view",
      "type": "function"
    },
    {
      "inputs": [
        {
          "internalType": "string",
          "name": "",
          "type": "string"
        }
      ],
      "name": "domains",
      "outputs": [
        {
          "internalType": "address",
          "name": "",
          "type": "address"
        }
      ],
      "stateMutability": "view",
      "type": "function"
    },
    {
      "inputs": [
        {
          "internalType": "string",
          "name": "name",
          "type": "string"
        }
      ],
      "name": "getAddress",
      "outputs": [
        {
          "internalType": "address",
          "name": "",
          "type": "address"
        }
      ],
      "stateMutability": "view",
      "type": "function"
    },
    {
      "inputs": [],
      "name": "getAllNames",
      "outputs": [
        {
          "internalType": "string[]",
          "name": "",
          "type": "string[]"
        }
      ],
      "stateMutability": "view",
      "type": "function"
    },
    {
      "inputs": [
        {
          "internalType": "uint256",
          "name": "tokenId",
          "type": "uint256"
        }
      ],
      "name": "getApproved",
      "outputs": [
        {
          "internalType": "address",
          "name": "",
          "type": "address"
        }
      ],
      "stateMutability": "view",
      "type": "function"
    },
    {
      "inputs": [
        {
          "internalType": "string",
          "name": "name",
          "type": "string"
        }
      ],
      "name": "getRecord",
      "outputs": [
        {
          "internalType": "string",
          "name": "",
          "type": "string"
        }
      ],
      "stateMutability": "view",
      "type": "function"
    },
    {
      "inputs": [
        {
          "internalType": "address",
          "name": "owner",
          "type": "address"
        },
        {
          "internalType": "address",
          "name": "operator",
          "type": "address"
        }
      ],
      "name": "isApprovedForAll",
      "outputs": [
        {
          "internalType": "bool",
          "name": "",
          "type": "bool"
        }
      ],
      "stateMutability": "view",
      "type": "function"
    },
    {
      "inputs": [],
      "name": "isOwner",
      "outputs": [
        {
          "internalType": "bool",
          "name": "",
          "type": "bool"
        }
      ],
      "stateMutability": "view",
      "type": "function"
    },
    {
      "inputs": [],
      "name": "name",
      "outputs": [
        {
          "internalType": "string",
          "name": "",
          "type": "string"
        }
      ],
      "stateMutability": "view",
      "type": "function"
    },
    {
      "inputs": [
        {
          "internalType": "uint256",
          "name": "",
          "type": "uint256"
        }
      ],
      "name": "names",
      "outputs": [
        {
          "internalType": "string",
          "name": "",
          "type": "string"
        }
      ],
      "stateMutability": "view",
      "type": "function"
    },
    {
      "inputs": [],
      "name": "owner",
      "outputs": [
        {
          "internalType": "address payable",
          "name": "",
          "type": "address"
        }
      ],
      "stateMutability": "view",
      "type": "function"
    },
    {
      "inputs": [
        {
          "internalType": "uint256",
          "name": "tokenId",
          "type": "uint256"
        }
      ],
      "name": "ownerOf",
      "outputs": [
        {
          "internalType": "address",
          "name": "",
          "type": "address"
        }
      ],
      "stateMutability": "view",
      "type": "function"
    },
    {
      "inputs": [
        {
          "internalType": "string",
          "name": "name",
          "type": "string"
        }
      ],
      "name": "price",
      "outputs": [
        {
          "internalType": "uint256",
          "name": "",
          "type": "uint256"
        }
      ],
      "stateMutability": "pure",
      "type": "function"
    },
    {
      "inputs": [
        {
          "internalType": "string",
          "name": "",
          "type": "string"
        }
      ],
      "name": "records",
      "outputs": [
        {
          "internalType": "string",
          "name": "",
          "type": "string"
        }
      ],
      "stateMutability": "view",
      "type": "function"
    },
    {
      "inputs": [
        {
          "internalType": "string",
          "name": "name",
          "type": "string"
        }
      ],
      "name": "register",
      "outputs": [],
      "stateMutability": "payable",
      "type": "function"
    },
    {
      "inputs": [
        {
          "internalType": "address",
          "name": "from",
          "type": "address"
        },
        {
          "internalType": "address",
          "name": "to",
          "type": "address"
        },
        {
          "internalType": "uint256",
          "name": "tokenId",
          "type": "uint256"
        }
      ],
      "name": "safeTransferFrom",
      "outputs": [],
      "stateMutability": "nonpayable",
      "type": "function"
    },
    {
      "inputs": [
        {
          "internalType": "address",
          "name": "from",
          "type": "address"
        },
        {
          "internalType": "address",
          "name": "to",
          "type": "address"
        },
        {
          "internalType": "uint256",
          "name": "tokenId",
          "type": "uint256"
        },
        {
          "internalType": "bytes",
          "name": "_data",
          "type": "bytes"
        }
      ],
      "name": "safeTransferFrom",
      "outputs": [],
      "stateMutability": "nonpayable",
      "type": "function"
    },
    {
      "inputs": [
        {
          "internalType": "address",
          "name": "operator",
          "type": "address"
        },
        {
          "internalType": "bool",
          "name": "approved",
          "type": "bool"
        }
      ],
      "name": "setApprovalForAll",
      "outputs": [],
      "stateMutability": "nonpayable",
      "type": "function"
    },
    {
      "inputs": [
        {
          "internalType": "string",
          "name": "name",
          "type": "string"
        },
        {
          "internalType": "string",
          "name": "record",
          "type": "string"
        }
      ],
      "name": "setRecord",
      "outputs": [],
      "stateMutability": "nonpayable",
      "type": "function"
    },
    {
      "inputs": [
        {
          "internalType": "bytes4",
          "name": "interfaceId",
          "type": "bytes4"
        }
      ],
      "name": "supportsInterface",
      "outputs": [
        {
          "internalType": "bool",
          "name": "",
          "type": "bool"
        }
      ],
      "stateMutability": "view",
      "type": "function"
    },
    {
      "inputs": [],
      "name": "symbol",
      "outputs": [
        {
          "internalType": "string",
          "name": "",
          "type": "string"
        }
      ],
      "stateMutability": "view",
      "type": "function"
    },
    {
      "inputs": [],
      "name": "tld",
      "outputs": [
        {
          "internalType": "string",
          "name": "",
          "type": "string"
        }
      ],
      "stateMutability": "view",
      "type": "function"
    },
    {
      "inputs": [
        {
          "internalType": "uint256",
          "name": "tokenId",
          "type": "uint256"
        }
      ],
      "name": "tokenURI",
      "outputs": [
        {
          "internalType": "string",
          "name": "",
          "type": "string"
        }
      ],
      "stateMutability": "view",
      "type": "function"
    },
    {
      "inputs": [
        {
          "internalType": "address",
          "name": "from",
          "type": "address"
        },
        {
          "internalType": "address",
          "name": "to",
          "type": "address"
        },
        {
          "internalType": "uint256",
          "name": "tokenId",
          "type": "uint256"
        }
      ],
      "name": "transferFrom",
      "outputs": [],
      "stateMutability": "nonpayable",
      "type": "function"
    },
    {
      "inputs": [],
      "name": "withdraw",
      "outputs": [],
      "stateMutability": "nonpayable",
      "type": "function"
    }
  ],
  "bytecode": "0x6080604052604051806108a0016040528061086b8152602001620050ea61086b91396009908051906020019062000038929190620002c8565b506040518060400160405280600d81526020017f3c2f746578743e3c2f7376673e00000000000000000000000000000000000000815250600a908051906020019062000086929190620002c8565b5060405162005955380380620059558339818101604052810190620000ac919062000515565b6040518060400160405280601281526020017f4e696e6a61204e616d65205365727669636500000000000000000000000000008152506040518060400160405280600381526020017f4e4e530000000000000000000000000000000000000000000000000000000000815250816000908051906020019062000130929190620002c8565b50806001908051906020019062000149929190620002c8565b50505033600e60006101000a81548173ffffffffffffffffffffffffffffffffffffffff021916908373ffffffffffffffffffffffffffffffffffffffff1602179055508060089080519060200190620001a5929190620002c8565b50620001f26040518060400160405280601881526020017f2573206e616d652073657276696365206465706c6f796564000000000000000081525082620001f960201b620019921760201c565b5062000663565b6200029b828260405160240162000212929190620005c3565b6040516020818303038152906040527f4b5c4277000000000000000000000000000000000000000000000000000000007bffffffffffffffffffffffffffffffffffffffffffffffffffffffff19166020820180517bffffffffffffffffffffffffffffffffffffffffffffffffffffffff83818316178352505050506200029f60201b60201c565b5050565b60008151905060006a636f6e736f6c652e6c6f679050602083016000808483855afa5050505050565b828054620002d6906200062d565b90600052602060002090601f016020900481019282620002fa576000855562000346565b82601f106200031557805160ff191683800117855562000346565b8280016001018555821562000346579182015b828111156200034557825182559160200191906001019062000328565b5b50905062000355919062000359565b5090565b5b80821115620003745760008160009055506001016200035a565b5090565b6000604051905090565b600080fd5b600080fd5b600080fd5b600080fd5b6000601f19601f8301169050919050565b7f4e487b7100000000000000000000000000000000000000000000000000000000600052604160045260246000fd5b620003e18262000396565b810181811067ffffffffffffffff82111715620004035762000402620003a7565b5b80604052505050565b60006200041862000378565b9050620004268282620003d6565b919050565b600067ffffffffffffffff821115620004495762000448620003a7565b5b620004548262000396565b9050602081019050919050565b60005b838110156200048157808201518184015260208101905062000464565b8381111562000491576000848401525b50505050565b6000620004ae620004a8846200042b565b6200040c565b905082815260208101848484011115620004cd57620004cc62000391565b5b620004da84828562000461565b509392505050565b600082601f830112620004fa57620004f96200038c565b5b81516200050c84826020860162000497565b91505092915050565b6000602082840312156200052e576200052d62000382565b5b600082015167ffffffffffffffff8111156200054f576200054e62000387565b5b6200055d84828501620004e2565b91505092915050565b600081519050919050565b600082825260208201905092915050565b60006200058f8262000566565b6200059b818562000571565b9350620005ad81856020860162000461565b620005b88162000396565b840191505092915050565b60006040820190508181036000830152620005df818562000582565b90508181036020830152620005f5818462000582565b90509392505050565b7f4e487b7100000000000000000000000000000000000000000000000000000000600052602260045260246000fd5b600060028204905060018216806200064657607f821691505b602082108114156200065d576200065c620005fe565b5b50919050565b614a7780620006736000396000f3fe6080604052600436106101815760003560e01c806370a08231116100d1578063bf40fac11161008a578063e985e9c511610064578063e985e9c5146105cc578063f2c298be14610609578063fb825e5f14610625578063fe2c61981461065057610181565b8063bf40fac114610529578063c1880a9814610566578063c87b56dd1461058f57610181565b806370a08231146104195780638da5cb5b146104565780638f32d59b1461048157806395d89b41146104ac578063a22cb465146104d7578063b88d4fde1461050057610181565b8063264492351161013e57806342842e0e1161011857806342842e0e146103395780634622ab0314610362578063541e771d1461039f5780636352211e146103dc57610181565b806326449235146102ba5780632d551432146102f75780633ccfd60b1461032257610181565b806301ffc9a71461018657806306fdde03146101c3578063081812fc146101ee578063095ea7b31461022b57806311dd88451461025457806323b872dd14610291575b600080fd5b34801561019257600080fd5b506101ad60048036038101906101a89190612e74565b61068d565b6040516101ba9190612ebc565b60405180910390f35b3480156101cf57600080fd5b506101d861076f565b6040516101e59190612f70565b60405180910390f35b3480156101fa57600080fd5b5061021560048036038101906102109190612fc8565b610801565b6040516102229190613036565b60405180910390f35b34801561023757600080fd5b50610252600480360381019061024d919061307d565b610886565b005b34801561026057600080fd5b5061027b60048036038101906102769190613122565b61099e565b6040516102889190612f70565b60405180910390f35b34801561029d57600080fd5b506102b860048036038101906102b3919061316f565b610a51565b005b3480156102c657600080fd5b506102e160048036038101906102dc91906132f2565b610ab1565b6040516102ee9190613036565b60405180910390f35b34801561030357600080fd5b5061030c610afa565b6040516103199190612f70565b60405180910390f35b34801561032e57600080fd5b50610337610b88565b005b34801561034557600080fd5b50610360600480360381019061035b919061316f565b610c4e565b005b34801561036e57600080fd5b5061038960048036038101906103849190612fc8565b610c6e565b6040516103969190612f70565b60405180910390f35b3480156103ab57600080fd5b506103c660048036038101906103c191906132f2565b610d0e565b6040516103d39190612f70565b60405180910390f35b3480156103e857600080fd5b5061040360048036038101906103fe9190612fc8565b610dc4565b6040516104109190613036565b60405180910390f35b34801561042557600080fd5b50610440600480360381019061043b919061333b565b610e76565b60405161044d9190613377565b60405180910390f35b34801561046257600080fd5b5061046b610f2e565b60405161047891906133b3565b60405180910390f35b34801561048d57600080fd5b50610496610f54565b6040516104a39190612ebc565b60405180910390f35b3480156104b857600080fd5b506104c1610fac565b6040516104ce9190612f70565b60405180910390f35b3480156104e357600080fd5b506104fe60048036038101906104f991906133fa565b61103e565b005b34801561050c57600080fd5b50610527600480360381019061052291906134db565b611054565b005b34801561053557600080fd5b50610550600480360381019061054b9190613122565b6110b6565b60405161055d9190613036565b60405180910390f35b34801561057257600080fd5b5061058d6004803603810190610588919061355e565b611101565b005b34801561059b57600080fd5b506105b660048036038101906105b19190612fc8565b6111af565b6040516105c39190612f70565b60405180910390f35b3480156105d857600080fd5b506105f360048036038101906105ee91906135df565b611301565b6040516106009190612ebc565b60405180910390f35b610623600480360381019061061e9190613122565b611395565b005b34801561063157600080fd5b5061063a61170e565b604051610647919061372b565b60405180910390f35b34801561065c57600080fd5b5061067760048036038101906106729190613122565b6118ec565b6040516106849190613377565b60405180910390f35b60007f80ac58cd000000000000000000000000000000000000000000000000000000007bffffffffffffffffffffffffffffffffffffffffffffffffffffffff1916827bffffffffffffffffffffffffffffffffffffffffffffffffffffffff1916148061075857507f5b5e139f000000000000000000000000000000000000000000000000000000007bffffffffffffffffffffffffffffffffffffffffffffffffffffffff1916827bffffffffffffffffffffffffffffffffffffffffffffffffffffffff1916145b80610768575061076782611a2e565b5b9050919050565b60606000805461077e9061377c565b80601f01602080910402602001604051908101604052809291908181526020018280546107aa9061377c565b80156107f75780601f106107cc576101008083540402835291602001916107f7565b820191906000526020600020905b8154815290600101906020018083116107da57829003601f168201915b5050505050905090565b600061080c82611a98565b61084b576040517f08c379a000000000000000000000000000000000000000000000000000000000815260040161084290613820565b60405180910390fd5b6004600083815260200190815260200160002060009054906101000a900473ffffffffffffffffffffffffffffffffffffffff169050919050565b600061089182610dc4565b90508073ffffffffffffffffffffffffffffffffffffffff168373ffffffffffffffffffffffffffffffffffffffff161415610902576040517f08c379a00000000000000000000000000000000000000000000000000000000081526004016108f9906138b2565b60405180910390fd5b8073ffffffffffffffffffffffffffffffffffffffff16610921611b04565b73ffffffffffffffffffffffffffffffffffffffff161480610950575061094f8161094a611b04565b611301565b5b61098f576040517f08c379a000000000000000000000000000000000000000000000000000000000815260040161098690613944565b60405180910390fd5b6109998383611b0c565b505050565b6060600c83836040516109b2929190613994565b908152602001604051809103902080546109cb9061377c565b80601f01602080910402602001604051908101604052809291908181526020018280546109f79061377c565b8015610a445780601f10610a1957610100808354040283529160200191610a44565b820191906000526020600020905b815481529060010190602001808311610a2757829003601f168201915b5050505050905092915050565b610a62610a5c611b04565b82611bc5565b610aa1576040517f08c379a0000000000000000000000000000000000000000000000000000000008152600401610a9890613a1f565b60405180910390fd5b610aac838383611ca3565b505050565b600b818051602081018201805184825260208301602085012081835280955050505050506000915054906101000a900473ffffffffffffffffffffffffffffffffffffffff1681565b60088054610b079061377c565b80601f0160208091040260200160405190810160405280929190818152602001828054610b339061377c565b8015610b805780601f10610b5557610100808354040283529160200191610b80565b820191906000526020600020905b815481529060010190602001808311610b6357829003601f168201915b505050505081565b610b90610f54565b610b9957600080fd5b600047905060003373ffffffffffffffffffffffffffffffffffffffff1682604051610bc490613a70565b60006040518083038185875af1925050503d8060008114610c01576040519150601f19603f3d011682016040523d82523d6000602084013e610c06565b606091505b5050905080610c4a576040517f08c379a0000000000000000000000000000000000000000000000000000000008152600401610c4190613ad1565b60405180910390fd5b5050565b610c6983838360405180602001604052806000815250611054565b505050565b600d6020528060005260406000206000915090508054610c8d9061377c565b80601f0160208091040260200160405190810160405280929190818152602001828054610cb99061377c565b8015610d065780601f10610cdb57610100808354040283529160200191610d06565b820191906000526020600020905b815481529060010190602001808311610ce957829003601f168201915b505050505081565b600c818051602081018201805184825260208301602085012081835280955050505050506000915090508054610d439061377c565b80601f0160208091040260200160405190810160405280929190818152602001828054610d6f9061377c565b8015610dbc5780601f10610d9157610100808354040283529160200191610dbc565b820191906000526020600020905b815481529060010190602001808311610d9f57829003601f168201915b505050505081565b6000806002600084815260200190815260200160002060009054906101000a900473ffffffffffffffffffffffffffffffffffffffff169050600073ffffffffffffffffffffffffffffffffffffffff168173ffffffffffffffffffffffffffffffffffffffff161415610e6d576040517f08c379a0000000000000000000000000000000000000000000000000000000008152600401610e6490613b63565b60405180910390fd5b80915050919050565b60008073ffffffffffffffffffffffffffffffffffffffff168273ffffffffffffffffffffffffffffffffffffffff161415610ee7576040517f08c379a0000000000000000000000000000000000000000000000000000000008152600401610ede90613bf5565b60405180910390fd5b600360008373ffffffffffffffffffffffffffffffffffffffff1673ffffffffffffffffffffffffffffffffffffffff168152602001908152602001600020549050919050565b600e60009054906101000a900473ffffffffffffffffffffffffffffffffffffffff1681565b6000600e60009054906101000a900473ffffffffffffffffffffffffffffffffffffffff1673ffffffffffffffffffffffffffffffffffffffff163373ffffffffffffffffffffffffffffffffffffffff1614905090565b606060018054610fbb9061377c565b80601f0160208091040260200160405190810160405280929190818152602001828054610fe79061377c565b80156110345780601f1061100957610100808354040283529160200191611034565b820191906000526020600020905b81548152906001019060200180831161101757829003601f168201915b5050505050905090565b611050611049611b04565b8383611f0a565b5050565b61106561105f611b04565b83611bc5565b6110a4576040517f08c379a000000000000000000000000000000000000000000000000000000000815260040161109b90613a1f565b60405180910390fd5b6110b084848484612077565b50505050565b6000600b83836040516110ca929190613994565b908152602001604051809103902060009054906101000a900473ffffffffffffffffffffffffffffffffffffffff16905092915050565b3373ffffffffffffffffffffffffffffffffffffffff16600b858560405161112a929190613994565b908152602001604051809103902060009054906101000a900473ffffffffffffffffffffffffffffffffffffffff1673ffffffffffffffffffffffffffffffffffffffff161461117957600080fd5b8181600c868660405161118d929190613994565b908152602001604051809103902091906111a8929190612cdf565b5050505050565b60606111ba82611a98565b6111f9576040517f08c379a00000000000000000000000000000000000000000000000000000000081526004016111f090613c87565b60405180910390fd5b60006006600084815260200190815260200160002080546112199061377c565b80601f01602080910402602001604051908101604052809291908181526020018280546112459061377c565b80156112925780601f1061126757610100808354040283529160200191611292565b820191906000526020600020905b81548152906001019060200180831161127557829003601f168201915b5050505050905060006112a36120d3565b90506000815114156112b95781925050506112fc565b6000825111156112ee5780826040516020016112d6929190613cd8565b604051602081830303815290604052925050506112fc565b6112f7846120ea565b925050505b919050565b6000600560008473ffffffffffffffffffffffffffffffffffffffff1673ffffffffffffffffffffffffffffffffffffffff16815260200190815260200160002060008373ffffffffffffffffffffffffffffffffffffffff1673ffffffffffffffffffffffffffffffffffffffff16815260200190815260200160002060009054906101000a900460ff16905092915050565b600073ffffffffffffffffffffffffffffffffffffffff16600b83836040516113bf929190613994565b908152602001604051809103902060009054906101000a900473ffffffffffffffffffffffffffffffffffffffff1673ffffffffffffffffffffffffffffffffffffffff161461140e57600080fd5b600061141a83836118ec565b90508034101561145f576040517f08c379a000000000000000000000000000000000000000000000000000000000815260040161145690613d48565b60405180910390fd5b60008383600860405160200161147793929190613e48565b60405160208183030381529060405290506000600982600a6040516020016114a193929190613e79565b604051602081830303815290604052905060006114be6007612191565b9050600061150f87878080601f016020809104026020016040519081016040528093929190818152602001838380828437600081840152601f19601f8201169050808301925050505050505061219f565b9050600061151c82612354565b90506115856040518060600160405280602e8152602001614a14602e913989898080601f016020809104026020016040519081016040528093929190818152602001838380828437600081840152601f19601f82011690508083019250505050505050856124b5565b60006115bb8661159487612554565b846040516020016115a793929190614026565b604051602081830303815290604052612554565b90506000816040516020016115d091906140cf565b6040516020818303038152906040529050611602604051806060016040528060398152602001614962603991396126ec565b6116416040518060400160405280600e81526020017f46696e616c20746f6b656e55524900000000000000000000000000000000000081525082611992565b61166260405180606001604052806039815260200161499b603991396126ec565b61166c3386612785565b61167685826127a3565b33600b8b8b604051611689929190613994565b908152602001604051809103902060006101000a81548173ffffffffffffffffffffffffffffffffffffffff021916908373ffffffffffffffffffffffffffffffffffffffff1602179055508989600d600088815260200190815260200160002091906116f7929190612cdf565b506117026007612817565b50505050505050505050565b606061174e6040518060400160405280601f81526020017f47657474696e6720616c6c206e616d65732066726f6d20636f6e7472616374008152506126ec565b600061175a6007612191565b67ffffffffffffffff811115611773576117726131c7565b5b6040519080825280602002602001820160405280156117a657816020015b60608152602001906001900390816117915790505b50905060005b6117b66007612191565b8110156118e457600d600082815260200190815260200160002080546117db9061377c565b80601f01602080910402602001604051908101604052809291908181526020018280546118079061377c565b80156118545780601f1061182957610100808354040283529160200191611854565b820191906000526020600020905b81548152906001019060200180831161183757829003601f168201915b505050505082828151811061186c5761186b6140f1565b5b60200260200101819052506118d16040518060400160405280601781526020017f4e616d6520666f7220746f6b656e202564206973202573000000000000000000815250828484815181106118c4576118c36140f1565b5b602002602001015161282d565b80806118dc9061414f565b9150506117ac565b508091505090565b60008061193c84848080601f016020809104026020016040519081016040528093929190818152602001838380828437600081840152601f19601f8201169050808301925050505050505061219f565b90506000811161194b57600080fd5b6003811415611965576706f05b59d3b2000091505061198c565b600481141561197f57670429d069189e000091505061198c565b67016345785d8a00009150505b92915050565b611a2a82826040516024016119a8929190614198565b6040516020818303038152906040527f4b5c4277000000000000000000000000000000000000000000000000000000007bffffffffffffffffffffffffffffffffffffffffffffffffffffffff19166020820180517bffffffffffffffffffffffffffffffffffffffffffffffffffffffff83818316178352505050506128cc565b5050565b60007f01ffc9a7000000000000000000000000000000000000000000000000000000007bffffffffffffffffffffffffffffffffffffffffffffffffffffffff1916827bffffffffffffffffffffffffffffffffffffffffffffffffffffffff1916149050919050565b60008073ffffffffffffffffffffffffffffffffffffffff166002600084815260200190815260200160002060009054906101000a900473ffffffffffffffffffffffffffffffffffffffff1673ffffffffffffffffffffffffffffffffffffffff1614159050919050565b600033905090565b816004600083815260200190815260200160002060006101000a81548173ffffffffffffffffffffffffffffffffffffffff021916908373ffffffffffffffffffffffffffffffffffffffff160217905550808273ffffffffffffffffffffffffffffffffffffffff16611b7f83610dc4565b73ffffffffffffffffffffffffffffffffffffffff167f8c5be1e5ebec7d5bd14f71427d1e84f3dd0314c0f7b2291e5b200ac8c7c3b92560405160405180910390a45050565b6000611bd082611a98565b611c0f576040517f08c379a0000000000000000000000000000000000000000000000000000000008152600401611c0690614241565b60405180910390fd5b6000611c1a83610dc4565b90508073ffffffffffffffffffffffffffffffffffffffff168473ffffffffffffffffffffffffffffffffffffffff161480611c5c5750611c5b8185611301565b5b80611c9a57508373ffffffffffffffffffffffffffffffffffffffff16611c8284610801565b73ffffffffffffffffffffffffffffffffffffffff16145b91505092915050565b8273ffffffffffffffffffffffffffffffffffffffff16611cc382610dc4565b73ffffffffffffffffffffffffffffffffffffffff1614611d19576040517f08c379a0000000000000000000000000000000000000000000000000000000008152600401611d10906142d3565b60405180910390fd5b600073ffffffffffffffffffffffffffffffffffffffff168273ffffffffffffffffffffffffffffffffffffffff161415611d89576040517f08c379a0000000000000000000000000000000000000000000000000000000008152600401611d8090614365565b60405180910390fd5b611d948383836128f5565b611d9f600082611b0c565b6001600360008573ffffffffffffffffffffffffffffffffffffffff1673ffffffffffffffffffffffffffffffffffffffff1681526020019081526020016000206000828254611def9190614385565b925050819055506001600360008473ffffffffffffffffffffffffffffffffffffffff1673ffffffffffffffffffffffffffffffffffffffff1681526020019081526020016000206000828254611e4691906143b9565b92505081905550816002600083815260200190815260200160002060006101000a81548173ffffffffffffffffffffffffffffffffffffffff021916908373ffffffffffffffffffffffffffffffffffffffff160217905550808273ffffffffffffffffffffffffffffffffffffffff168473ffffffffffffffffffffffffffffffffffffffff167fddf252ad1be2c89b69c2b068fc378daa952ba7f163c4a11628f55a4df523b3ef60405160405180910390a4611f058383836128fa565b505050565b8173ffffffffffffffffffffffffffffffffffffffff168373ffffffffffffffffffffffffffffffffffffffff161415611f79576040517f08c379a0000000000000000000000000000000000000000000000000000000008152600401611f709061445b565b60405180910390fd5b80600560008573ffffffffffffffffffffffffffffffffffffffff1673ffffffffffffffffffffffffffffffffffffffff16815260200190815260200160002060008473ffffffffffffffffffffffffffffffffffffffff1673ffffffffffffffffffffffffffffffffffffffff16815260200190815260200160002060006101000a81548160ff0219169083151502179055508173ffffffffffffffffffffffffffffffffffffffff168373ffffffffffffffffffffffffffffffffffffffff167f17307eab39ab6107e8899845ad3d59bd9653f200f220920489ca2b5937696c318360405161206a9190612ebc565b60405180910390a3505050565b612082848484611ca3565b61208e848484846128ff565b6120cd576040517f08c379a00000000000000000000000000000000000000000000000000000000081526004016120c4906144ed565b60405180910390fd5b50505050565b606060405180602001604052806000815250905090565b60606120f582611a98565b612134576040517f08c379a000000000000000000000000000000000000000000000000000000000815260040161212b9061457f565b60405180910390fd5b600061213e6120d3565b9050600081511161215e5760405180602001604052806000815250612189565b8061216884612354565b604051602001612179929190613cd8565b6040516020818303038152906040525b915050919050565b600081600001549050919050565b60008060008084519050600092505b808210156123495760008583815181106121cb576121ca6140f1565b5b602001015160f81c60f81b9050608060f81b817effffffffffffffffffffffffffffffffffffffffffffffffffffffffffffff1916101561221a5760018361221391906143b9565b9250612335565b60e060f81b817effffffffffffffffffffffffffffffffffffffffffffffffffffffffffffff1916101561225c5760028361225591906143b9565b9250612334565b60f060f81b817effffffffffffffffffffffffffffffffffffffffffffffffffffffffffffff1916101561229e5760038361229791906143b9565b9250612333565b60f8801b817effffffffffffffffffffffffffffffffffffffffffffffffffffffffffffff191610156122df576004836122d891906143b9565b9250612332565b60fc60f81b817effffffffffffffffffffffffffffffffffffffffffffffffffffffffffffff191610156123215760058361231a91906143b9565b9250612331565b60068361232e91906143b9565b92505b5b5b5b5b5082806123419061414f565b9350506121ae565b829350505050919050565b6060600082141561239c576040518060400160405280600181526020017f300000000000000000000000000000000000000000000000000000000000000081525090506124b0565b600082905060005b600082146123ce5780806123b79061414f565b915050600a826123c791906145ce565b91506123a4565b60008167ffffffffffffffff8111156123ea576123e96131c7565b5b6040519080825280601f01601f19166020018201604052801561241c5781602001600182028036833780820191505090505b5090505b600085146124a9576001826124359190614385565b9150600a8561244491906145ff565b603061245091906143b9565b60f81b818381518110612466576124656140f1565b5b60200101907effffffffffffffffffffffffffffffffffffffffffffffffffffffffffffff1916908160001a905350600a856124a291906145ce565b9450612420565b8093505050505b919050565b61254f8383836040516024016124cd93929190614630565b6040516020818303038152906040527ff362ca59000000000000000000000000000000000000000000000000000000007bffffffffffffffffffffffffffffffffffffffffffffffffffffffff19166020820180517bffffffffffffffffffffffffffffffffffffffffffffffffffffffff83818316178352505050506128cc565b505050565b6060600082519050600081141561257d57604051806020016040528060008152509150506126e7565b6000600360028361258e91906143b9565b61259891906145ce565b60046125a49190614675565b905060006020826125b591906143b9565b67ffffffffffffffff8111156125ce576125cd6131c7565b5b6040519080825280601f01601f1916602001820160405280156126005781602001600182028036833780820191505090505b50905060006040518060600160405280604081526020016149d4604091399050600181016020830160005b868110156126a45760038101905062ffffff818a015116603f8160121c168401518060081b905060ff603f83600c1c1686015116810190508060081b905060ff603f8360061c1686015116810190508060081b905060ff603f831686015116810190508060e01b9050808452600484019350505061262b565b5060038606600181146126be57600281146126ce576126d9565b613d3d60f01b60028303526126d9565b603d60f81b60018303525b508484525050819450505050505b919050565b612782816040516024016127009190612f70565b6040516020818303038152906040527f41304fac000000000000000000000000000000000000000000000000000000007bffffffffffffffffffffffffffffffffffffffffffffffffffffffff19166020820180517bffffffffffffffffffffffffffffffffffffffffffffffffffffffff83818316178352505050506128cc565b50565b61279f828260405180602001604052806000815250612a87565b5050565b6127ac82611a98565b6127eb576040517f08c379a00000000000000000000000000000000000000000000000000000000081526004016127e290614741565b60405180910390fd5b80600660008481526020019081526020016000209080519060200190612812929190612d65565b505050565b6001816000016000828254019250508190555050565b6128c783838360405160240161284593929190614761565b6040516020818303038152906040527fa3f5c739000000000000000000000000000000000000000000000000000000007bffffffffffffffffffffffffffffffffffffffffffffffffffffffff19166020820180517bffffffffffffffffffffffffffffffffffffffffffffffffffffffff83818316178352505050506128cc565b505050565b60008151905060006a636f6e736f6c652e6c6f679050602083016000808483855afa5050505050565b505050565b505050565b60006129208473ffffffffffffffffffffffffffffffffffffffff16612ae2565b15612a7a578373ffffffffffffffffffffffffffffffffffffffff1663150b7a02612949611b04565b8786866040518563ffffffff1660e01b815260040161296b94939291906147fb565b6020604051808303816000875af19250505080156129a757506040513d601f19601f820116820180604052508101906129a4919061485c565b60015b612a2a573d80600081146129d7576040519150601f19603f3d011682016040523d82523d6000602084013e6129dc565b606091505b50600081511415612a22576040517f08c379a0000000000000000000000000000000000000000000000000000000008152600401612a19906144ed565b60405180910390fd5b805181602001fd5b63150b7a0260e01b7bffffffffffffffffffffffffffffffffffffffffffffffffffffffff1916817bffffffffffffffffffffffffffffffffffffffffffffffffffffffff191614915050612a7f565b600190505b949350505050565b612a918383612b05565b612a9e60008484846128ff565b612add576040517f08c379a0000000000000000000000000000000000000000000000000000000008152600401612ad4906144ed565b60405180910390fd5b505050565b6000808273ffffffffffffffffffffffffffffffffffffffff163b119050919050565b600073ffffffffffffffffffffffffffffffffffffffff168273ffffffffffffffffffffffffffffffffffffffff161415612b75576040517f08c379a0000000000000000000000000000000000000000000000000000000008152600401612b6c906148d5565b60405180910390fd5b612b7e81611a98565b15612bbe576040517f08c379a0000000000000000000000000000000000000000000000000000000008152600401612bb590614941565b60405180910390fd5b612bca600083836128f5565b6001600360008473ffffffffffffffffffffffffffffffffffffffff1673ffffffffffffffffffffffffffffffffffffffff1681526020019081526020016000206000828254612c1a91906143b9565b92505081905550816002600083815260200190815260200160002060006101000a81548173ffffffffffffffffffffffffffffffffffffffff021916908373ffffffffffffffffffffffffffffffffffffffff160217905550808273ffffffffffffffffffffffffffffffffffffffff16600073ffffffffffffffffffffffffffffffffffffffff167fddf252ad1be2c89b69c2b068fc378daa952ba7f163c4a11628f55a4df523b3ef60405160405180910390a4612cdb600083836128fa565b5050565b828054612ceb9061377c565b90600052602060002090601f016020900481019282612d0d5760008555612d54565b82601f10612d2657803560ff1916838001178555612d54565b82800160010185558215612d54579182015b82811115612d53578235825591602001919060010190612d38565b5b509050612d619190612deb565b5090565b828054612d719061377c565b90600052602060002090601f016020900481019282612d935760008555612dda565b82601f10612dac57805160ff1916838001178555612dda565b82800160010185558215612dda579182015b82811115612dd9578251825591602001919060010190612dbe565b5b509050612de79190612deb565b5090565b5b80821115612e04576000816000905550600101612dec565b5090565b6000604051905090565b600080fd5b600080fd5b60007fffffffff0000000000000000000000000000000000000000000000000000000082169050919050565b612e5181612e1c565b8114612e5c57600080fd5b50565b600081359050612e6e81612e48565b92915050565b600060208284031215612e8a57612e89612e12565b5b6000612e9884828501612e5f565b91505092915050565b60008115159050919050565b612eb681612ea1565b82525050565b6000602082019050612ed16000830184612ead565b92915050565b600081519050919050565b600082825260208201905092915050565b60005b83811015612f11578082015181840152602081019050612ef6565b83811115612f20576000848401525b50505050565b6000601f19601f8301169050919050565b6000612f4282612ed7565b612f4c8185612ee2565b9350612f5c818560208601612ef3565b612f6581612f26565b840191505092915050565b60006020820190508181036000830152612f8a8184612f37565b905092915050565b6000819050919050565b612fa581612f92565b8114612fb057600080fd5b50565b600081359050612fc281612f9c565b92915050565b600060208284031215612fde57612fdd612e12565b5b6000612fec84828501612fb3565b91505092915050565b600073ffffffffffffffffffffffffffffffffffffffff82169050919050565b600061302082612ff5565b9050919050565b61303081613015565b82525050565b600060208201905061304b6000830184613027565b92915050565b61305a81613015565b811461306557600080fd5b50565b60008135905061307781613051565b92915050565b6000806040838503121561309457613093612e12565b5b60006130a285828601613068565b92505060206130b385828601612fb3565b9150509250929050565b600080fd5b600080fd5b600080fd5b60008083601f8401126130e2576130e16130bd565b5b8235905067ffffffffffffffff8111156130ff576130fe6130c2565b5b60208301915083600182028301111561311b5761311a6130c7565b5b9250929050565b6000806020838503121561313957613138612e12565b5b600083013567ffffffffffffffff81111561315757613156612e17565b5b613163858286016130cc565b92509250509250929050565b60008060006060848603121561318857613187612e12565b5b600061319686828701613068565b93505060206131a786828701613068565b92505060406131b886828701612fb3565b9150509250925092565b600080fd5b7f4e487b7100000000000000000000000000000000000000000000000000000000600052604160045260246000fd5b6131ff82612f26565b810181811067ffffffffffffffff8211171561321e5761321d6131c7565b5b80604052505050565b6000613231612e08565b905061323d82826131f6565b919050565b600067ffffffffffffffff82111561325d5761325c6131c7565b5b61326682612f26565b9050602081019050919050565b82818337600083830152505050565b600061329561329084613242565b613227565b9050828152602081018484840111156132b1576132b06131c2565b5b6132bc848285613273565b509392505050565b600082601f8301126132d9576132d86130bd565b5b81356132e9848260208601613282565b91505092915050565b60006020828403121561330857613307612e12565b5b600082013567ffffffffffffffff81111561332657613325612e17565b5b613332848285016132c4565b91505092915050565b60006020828403121561335157613350612e12565b5b600061335f84828501613068565b91505092915050565b61337181612f92565b82525050565b600060208201905061338c6000830184613368565b92915050565b600061339d82612ff5565b9050919050565b6133ad81613392565b82525050565b60006020820190506133c860008301846133a4565b92915050565b6133d781612ea1565b81146133e257600080fd5b50565b6000813590506133f4816133ce565b92915050565b6000806040838503121561341157613410612e12565b5b600061341f85828601613068565b9250506020613430858286016133e5565b9150509250929050565b600067ffffffffffffffff821115613455576134546131c7565b5b61345e82612f26565b9050602081019050919050565b600061347e6134798461343a565b613227565b90508281526020810184848401111561349a576134996131c2565b5b6134a5848285613273565b509392505050565b600082601f8301126134c2576134c16130bd565b5b81356134d284826020860161346b565b91505092915050565b600080600080608085870312156134f5576134f4612e12565b5b600061350387828801613068565b945050602061351487828801613068565b935050604061352587828801612fb3565b925050606085013567ffffffffffffffff81111561354657613545612e17565b5b613552878288016134ad565b91505092959194509250565b6000806000806040858703121561357857613577612e12565b5b600085013567ffffffffffffffff81111561359657613595612e17565b5b6135a2878288016130cc565b9450945050602085013567ffffffffffffffff8111156135c5576135c4612e17565b5b6135d1878288016130cc565b925092505092959194509250565b600080604083850312156135f6576135f5612e12565b5b600061360485828601613068565b925050602061361585828601613068565b9150509250929050565b600081519050919050565b600082825260208201905092915050565b6000819050602082019050919050565b600082825260208201905092915050565b600061366782612ed7565b613671818561364b565b9350613681818560208601612ef3565b61368a81612f26565b840191505092915050565b60006136a1838361365c565b905092915050565b6000602082019050919050565b60006136c18261361f565b6136cb818561362a565b9350836020820285016136dd8561363b565b8060005b8581101561371957848403895281516136fa8582613695565b9450613705836136a9565b925060208a019950506001810190506136e1565b50829750879550505050505092915050565b6000602082019050818103600083015261374581846136b6565b905092915050565b7f4e487b7100000000000000000000000000000000000000000000000000000000600052602260045260246000fd5b6000600282049050600182168061379457607f821691505b602082108114156137a8576137a761374d565b5b50919050565b7f4552433732313a20617070726f76656420717565727920666f72206e6f6e657860008201527f697374656e7420746f6b656e0000000000000000000000000000000000000000602082015250565b600061380a602c83612ee2565b9150613815826137ae565b604082019050919050565b60006020820190508181036000830152613839816137fd565b9050919050565b7f4552433732313a20617070726f76616c20746f2063757272656e74206f776e6560008201527f7200000000000000000000000000000000000000000000000000000000000000602082015250565b600061389c602183612ee2565b91506138a782613840565b604082019050919050565b600060208201905081810360008301526138cb8161388f565b9050919050565b7f4552433732313a20617070726f76652063616c6c6572206973206e6f74206f7760008201527f6e6572206e6f7220617070726f76656420666f7220616c6c0000000000000000602082015250565b600061392e603883612ee2565b9150613939826138d2565b604082019050919050565b6000602082019050818103600083015261395d81613921565b9050919050565b600081905092915050565b600061397b8385613964565b9350613988838584613273565b82840190509392505050565b60006139a182848661396f565b91508190509392505050565b7f4552433732313a207472616e736665722063616c6c6572206973206e6f74206f60008201527f776e6572206e6f7220617070726f766564000000000000000000000000000000602082015250565b6000613a09603183612ee2565b9150613a14826139ad565b604082019050919050565b60006020820190508181036000830152613a38816139fc565b9050919050565b600081905092915050565b50565b6000613a5a600083613a3f565b9150613a6582613a4a565b600082019050919050565b6000613a7b82613a4d565b9150819050919050565b7f4661696c656420746f207769746864726177204d617469630000000000000000600082015250565b6000613abb601883612ee2565b9150613ac682613a85565b602082019050919050565b60006020820190508181036000830152613aea81613aae565b9050919050565b7f4552433732313a206f776e657220717565727920666f72206e6f6e657869737460008201527f656e7420746f6b656e0000000000000000000000000000000000000000000000602082015250565b6000613b4d602983612ee2565b9150613b5882613af1565b604082019050919050565b60006020820190508181036000830152613b7c81613b40565b9050919050565b7f4552433732313a2062616c616e636520717565727920666f7220746865207a6560008201527f726f206164647265737300000000000000000000000000000000000000000000602082015250565b6000613bdf602a83612ee2565b9150613bea82613b83565b604082019050919050565b60006020820190508181036000830152613c0e81613bd2565b9050919050565b7f45524337323155524953746f726167653a2055524920717565727920666f722060008201527f6e6f6e6578697374656e7420746f6b656e000000000000000000000000000000602082015250565b6000613c71603183612ee2565b9150613c7c82613c15565b604082019050919050565b60006020820190508181036000830152613ca081613c64565b9050919050565b6000613cb282612ed7565b613cbc8185613964565b9350613ccc818560208601612ef3565b80840191505092915050565b6000613ce48285613ca7565b9150613cf08284613ca7565b91508190509392505050565b7f4e6f7420656e6f756768204d6174696320706169640000000000000000000000600082015250565b6000613d32601583612ee2565b9150613d3d82613cfc565b602082019050919050565b60006020820190508181036000830152613d6181613d25565b9050919050565b7f2e00000000000000000000000000000000000000000000000000000000000000600082015250565b6000613d9e600183613964565b9150613da982613d68565b600182019050919050565b60008190508160005260206000209050919050565b60008154613dd68161377c565b613de08186613964565b94506001821660008114613dfb5760018114613e0c57613e3f565b60ff19831686528186019350613e3f565b613e1585613db4565b60005b83811015613e3757815481890152600182019150602081019050613e18565b838801955050505b50505092915050565b6000613e5582858761396f565b9150613e6082613d91565b9150613e6c8284613dc9565b9150819050949350505050565b6000613e858286613dc9565b9150613e918285613ca7565b9150613e9d8284613dc9565b9150819050949350505050565b7f7b226e616d65223a202200000000000000000000000000000000000000000000600082015250565b6000613ee0600a83613964565b9150613eeb82613eaa565b600a82019050919050565b7f222c20226465736372697074696f6e223a20224120646f6d61696e206f6e207460008201527f6865204e696e6a61206e616d652073657276696365222c2022696d616765223a60208201527f2022646174613a696d6167652f7376672b786d6c3b6261736536342c00000000604082015250565b6000613f78605c83613964565b9150613f8382613ef6565b605c82019050919050565b7f222c226c656e677468223a220000000000000000000000000000000000000000600082015250565b6000613fc4600c83613964565b9150613fcf82613f8e565b600c82019050919050565b7f227d000000000000000000000000000000000000000000000000000000000000600082015250565b6000614010600283613964565b915061401b82613fda565b600282019050919050565b600061403182613ed3565b915061403d8286613ca7565b915061404882613f6b565b91506140548285613ca7565b915061405f82613fb7565b915061406b8284613ca7565b915061407682614003565b9150819050949350505050565b7f646174613a6170706c69636174696f6e2f6a736f6e3b6261736536342c000000600082015250565b60006140b9601d83613964565b91506140c482614083565b601d82019050919050565b60006140da826140ac565b91506140e68284613ca7565b915081905092915050565b7f4e487b7100000000000000000000000000000000000000000000000000000000600052603260045260246000fd5b7f4e487b7100000000000000000000000000000000000000000000000000000000600052601160045260246000fd5b600061415a82612f92565b91507fffffffffffffffffffffffffffffffffffffffffffffffffffffffffffffffff82141561418d5761418c614120565b5b600182019050919050565b600060408201905081810360008301526141b28185612f37565b905081810360208301526141c68184612f37565b90509392505050565b7f4552433732313a206f70657261746f7220717565727920666f72206e6f6e657860008201527f697374656e7420746f6b656e0000000000000000000000000000000000000000602082015250565b600061422b602c83612ee2565b9150614236826141cf565b604082019050919050565b6000602082019050818103600083015261425a8161421e565b9050919050565b7f4552433732313a207472616e736665722066726f6d20696e636f72726563742060008201527f6f776e6572000000000000000000000000000000000000000000000000000000602082015250565b60006142bd602583612ee2565b91506142c882614261565b604082019050919050565b600060208201905081810360008301526142ec816142b0565b9050919050565b7f4552433732313a207472616e7366657220746f20746865207a65726f2061646460008201527f7265737300000000000000000000000000000000000000000000000000000000602082015250565b600061434f602483612ee2565b915061435a826142f3565b604082019050919050565b6000602082019050818103600083015261437e81614342565b9050919050565b600061439082612f92565b915061439b83612f92565b9250828210156143ae576143ad614120565b5b828203905092915050565b60006143c482612f92565b91506143cf83612f92565b9250827fffffffffffffffffffffffffffffffffffffffffffffffffffffffffffffffff0382111561440457614403614120565b5b828201905092915050565b7f4552433732313a20617070726f766520746f2063616c6c657200000000000000600082015250565b6000614445601983612ee2565b91506144508261440f565b602082019050919050565b6000602082019050818103600083015261447481614438565b9050919050565b7f4552433732313a207472616e7366657220746f206e6f6e20455243373231526560008201527f63656976657220696d706c656d656e7465720000000000000000000000000000602082015250565b60006144d7603283612ee2565b91506144e28261447b565b604082019050919050565b60006020820190508181036000830152614506816144ca565b9050919050565b7f4552433732314d657461646174613a2055524920717565727920666f72206e6f60008201527f6e6578697374656e7420746f6b656e0000000000000000000000000000000000602082015250565b6000614569602f83612ee2565b91506145748261450d565b604082019050919050565b600060208201905081810360008301526145988161455c565b9050919050565b7f4e487b7100000000000000000000000000000000000000000000000000000000600052601260045260246000fd5b60006145d982612f92565b91506145e483612f92565b9250826145f4576145f361459f565b5b828204905092915050565b600061460a82612f92565b915061461583612f92565b9250826146255761462461459f565b5b828206905092915050565b6000606082019050818103600083015261464a8186612f37565b9050818103602083015261465e8185612f37565b905061466d6040830184613368565b949350505050565b600061468082612f92565b915061468b83612f92565b9250817fffffffffffffffffffffffffffffffffffffffffffffffffffffffffffffffff04831182151516156146c4576146c3614120565b5b828202905092915050565b7f45524337323155524953746f726167653a2055524920736574206f66206e6f6e60008201527f6578697374656e7420746f6b656e000000000000000000000000000000000000602082015250565b600061472b602e83612ee2565b9150614736826146cf565b604082019050919050565b6000602082019050818103600083015261475a8161471e565b9050919050565b6000606082019050818103600083015261477b8186612f37565b905061478a6020830185613368565b818103604083015261479c8184612f37565b9050949350505050565b600081519050919050565b600082825260208201905092915050565b60006147cd826147a6565b6147d781856147b1565b93506147e7818560208601612ef3565b6147f081612f26565b840191505092915050565b60006080820190506148106000830187613027565b61481d6020830186613027565b61482a6040830185613368565b818103606083015261483c81846147c2565b905095945050505050565b60008151905061485681612e48565b92915050565b60006020828403121561487257614871612e12565b5b600061488084828501614847565b91505092915050565b7f4552433732313a206d696e7420746f20746865207a65726f2061646472657373600082015250565b60006148bf602083612ee2565b91506148ca82614889565b602082019050919050565b600060208201905081810360008301526148ee816148b2565b9050919050565b7f4552433732313a20746f6b656e20616c7265616479206d696e74656400000000600082015250565b600061492b601c83612ee2565b9150614936826148f5565b602082019050919050565b6000602082019050818103600083015261495a8161491e565b905091905056fe0a2d2d2d2d2d2d2d2d2d2d2d2d2d2d2d2d2d2d2d2d2d2d2d2d2d2d2d2d2d2d2d2d2d2d2d2d2d2d2d2d2d2d2d2d2d2d2d2d2d2d2d2d2d2d2d2d2d2d2d2d2d2d2d2d2d2d2d2d2d2d2d2d2d2d2d2d2d2d2d2d2d2d2d2d2d2d2d2d2d2d2d2d2d2d2d2d2d2d2d2d2d2d2d2d2d2d2d2d2d2d2d2d0a4142434445464748494a4b4c4d4e4f505152535455565758595a6162636465666768696a6b6c6d6e6f707172737475767778797a303132333435363738392b2f5265676973746572696e67202573206f6e2074686520636f6e7472616374207769746820746f6b656e4944202564a2646970667358221220d4be3f63ba5fc4cffdc8845c1c2587a13d2c531604a00a81438a92fe9352337a64736f6c634300080a00333c73766720786d6c6e733d22687474703a2f2f7777772e77332e6f72672f323030302f737667222077696474683d2232373022206865696768743d22323730222066696c6c3d226e6f6e65223e3c706174682066696c6c3d2275726c282342292220643d224d302030683237307632373048307a222f3e3c646566733e3c66696c7465722069643d22412220636f6c6f722d696e746572706f6c6174696f6e2d66696c746572733d2273524742222066696c746572556e6974733d227573657253706163654f6e55736522206865696768743d22323730222077696474683d22323730223e3c666544726f70536861646f772064783d2230222064793d22312220737464446576696174696f6e3d22322220666c6f6f642d6f7061636974793d222e323235222077696474683d223230302522206865696768743d2232303025222f3e3c2f66696c7465723e3c2f646566733e3c7061746820643d224d37322e3836332034322e393439632d2e3636382d2e3338372d312e3432362d2e35392d322e3139372d2e3539732d312e3532392e3230342d322e3139372e35396c2d31302e30383120362e3033322d362e383520332e3933342d31302e30383120362e303332632d2e3636382e3338372d312e3432362e35392d322e3139372e3539732d312e3532392d2e3230342d322e3139372d2e35396c2d382e3031332d342e37323161342e353220342e35322030203020312d312e3538392d312e363136632d2e3338342d2e3636352d2e3539342d312e3431382d2e3630382d322e313837762d392e3331632d2e3031332d2e3737352e3138352d312e3533382e3537322d322e32303861342e323520342e323520302030203120312e3632352d312e3539356c372e3838342d342e3539632e3636382d2e33383720312e3432362d2e353920322e3139372d2e353973312e3532392e32303420322e3139372e35396c372e38383420342e353961342e353220342e353220302030203120312e35383920312e363136632e3338342e3636352e35393420312e3431382e36303820322e31383776362e3033326c362e38352d342e303635762d362e303332632e3031332d2e3737352d2e3138352d312e3533382d2e3537322d322e32303861342e323520342e32352030203020302d312e3632352d312e3539354c34312e3435362032342e3539632d2e3636382d2e3338372d312e3432362d2e35392d322e3139372d2e3539732d312e3532392e3230342d322e3139372e35396c2d31342e38363420382e36353561342e323520342e32352030203020302d312e36323520312e353935632d2e3338372e36372d2e35383520312e3433342d2e35373220322e3230387631372e343431632d2e3031332e3737352e31383520312e3533382e35373220322e32303861342e323520342e323520302030203020312e36323520312e3539356c31342e38363420382e363535632e3636382e33383720312e3432362e353920322e3139372e353973312e3532392d2e32303420322e3139372d2e35396c31302e3038312d352e39303120362e38352d342e3036352031302e3038312d352e393031632e3636382d2e33383720312e3432362d2e353920322e3139372d2e353973312e3532392e32303420322e3139372e35396c372e38383420342e353961342e353220342e353220302030203120312e35383920312e363136632e3338342e3636352e35393420312e3431382e36303820322e31383776392e333131632e3031332e3737352d2e31383520312e3533382d2e35373220322e32303861342e323520342e32352030203020312d312e36323520312e3539356c2d372e38383420342e373231632d2e3636382e3338372d312e3432362e35392d322e3139372e3539732d312e3532392d2e3230342d322e3139372d2e35396c2d372e3838342d342e353961342e353220342e35322030203020312d312e3538392d312e363136632d2e3338352d2e3636352d2e3539342d312e3431382d2e3630382d322e313837762d362e3033326c2d362e383520342e30363576362e303332632d2e3031332e3737352e31383520312e3533382e35373220322e32303861342e323520342e323520302030203020312e36323520312e3539356c31342e38363420382e363535632e3636382e33383720312e3432362e353920322e3139372e353973312e3532392d2e32303420322e3139372d2e35396c31342e3836342d382e363535632e3635372d2e33393420312e3230342d2e393520312e3538392d312e363136732e3539342d312e3431382e3630392d322e3138375635352e353338632e3031332d2e3737352d2e3138352d312e3533382d2e3537322d322e32303861342e323520342e32352030203020302d312e3632352d312e3539356c2d31342e3939332d382e3738367a222066696c6c3d2223666666222f3e3c646566733e3c6c696e6561724772616469656e742069643d2242222078313d2230222079313d2230222078323d22323730222079323d2232373022206772616469656e74556e6974733d227573657253706163654f6e557365223e3c73746f702073746f702d636f6c6f723d2223636235656565222f3e3c73746f70206f66667365743d2231222073746f702d636f6c6f723d2223306364376534222073746f702d6f7061636974793d222e3939222f3e3c2f6c696e6561724772616469656e743e3c2f646566733e3c7465787420783d2233322e352220793d223233312220666f6e742d73697a653d223237222066696c6c3d2223666666222066696c7465723d2275726c282341292220666f6e742d66616d696c793d22506c7573204a616b617274612053616e732c44656a6156752053616e732c4e6f746f20436f6c6f7220456d6f6a692c4170706c6520436f6c6f7220456d6f6a692c73616e732d73657269662220666f6e742d7765696768743d22626f6c64223e",
  "linkReferences": {},
  "deployedLinkReferences": {}
}